:020000020000FC
:10000000A2C571C01895189509946DC04AC018957D
:1000100052C018951895AAC0189518951895189556
:100020001895A4C01895697A40744042405B9FB609
:100030008A9409F4E1E29FBE18959FB68A949FBE08
:10004000189520FD929A21FDC29A22FDC19A0000C6
:100050000000D4D020FD939A21FD949A22FD959A18
:10006000E6E3832C24BC1895A89518958F12E5CF4C
:10007000A89511FDE6CFE0916500852C20FD9398B1
:1000800021FD949822FD959844BC27FD1895000009
:1000900000C000C020FD929821FDC29822FDC198A9
:1000A00018959FB640916300415008F40E7F40932D
:1000B00063009FBE18959FB640916400439540939E
:1000C00064004F7019F4BB2019F0BA949FBE1895C4
:1000D00040916600439540936600409167004395C8
:1000E00040936700F3CF46B557B59EB496FE0DC05A
:1000F0009FB65A5659BD48BD41E84EBD48E048BF7D
:100100009FBE18959FB604602DC098B693FCFACF99
:100110009FB63A0148B559B55659641A750A1CC0BC
:1001200040EA64164FE0740660F0409182005091FE
:100130008300440F551F43954093820050938300E2
:1001400011C04091820050918300440F551F40938D
:1001500082005093830006C040E0641640E37406BA
:10016000F8F2106141EC4EBD9FBE189590E578EC19
:10017000A39AC298939A1ED0E1F7A398089594E6A3
:1001800074EBA29AC198949A15D0E1F7A2980895B9
:1001900098E770EA9298959A0DD0E1F708959CE857
:1001A0007CE8A39AA29AC198939A04D0E1F7A29806
:1001B000A3980895F2BF82B78032E8F3929AC29A68
:1001C000C19A62B3677C62BB60E1F2BFA89582B757
:1001D0008717E8F36A95C9F79A95089500D000D07B
:1001E00000D09FE060E1F2BF81E088BFA89588B7AA
:1001F00080FFFDCF6A95B9F79A95A1F70895809190
:1002000088009091890089569A4739F0C8E8D0E073
:10021000E6E285918993C039E1F708958091600005
:1002200081BF0F7DC8E8D0E080E890E0A895E19913
:10023000FDCF67B760FDFACFC03981F09FBB8EBBA1
:100240000196E09A6DB317F06993F0CF79917DBB79
:10025000F894E29A6713E19A7894E8CFC2DF8FEFBF
:1002600081BF0895000C111CAA1C8A95D9F7089526
:10027000869FA12C969FA00CC11DDF1F879FA00CFD
:10028000C11DDF1F979FC00DD11D0895E894A1E007
:1002900070E03AD0A2E071E037D0A4E0C8E8D3E142
:1002A00021978799E9F742D0A5E0C8E8D3E12197E3
:1002B0008699E9F73BD056F38E9A969A92DFA6E09C
:1002C00070E040D0EC01939A3DD093982BD089DF19
:1002D000A7E071E037D0EC01949A34D0949822D002
:1002E00096987FDFA9E070E02DD0EC0192982AD09B
:1002F000929A14D0AAE071E025D0EC01C29822D0E5
:10030000C29A0CD08E980895C8E8D3E11BD08F56BE
:10031000904018F02197D1F70AC00895C817D9075F
:1003200030F408958C179D0710F4089551F4CA2FE6
:10033000A39A55DFA39852DFCA95D1F74FDF4EDF5E
:1003400068940895F0BF706477B987EC86B9A89572
:100350003699FECF84B195B1F6B9089500C01F76E5
:1003600080918300805848F090918200392F8093CB
:100370008100F0938200F0938300F0938200F09369
:100380008300C30180346BE5960718F0C7E5D3E01E
:1003900003C0CC27DD2700C0C0937900D0937A003A
:1003A00001FF03C082E0B82EB8C08CE0B816BF1EB3
:1003B0000895C3E07695679596958795CA95D1F788
:1003C000089588E0082780918C0090918D006091BD
:1003D0008A0070918B0003FDECDF80937F00909387
:1003E0008000681B790B05D080937B0090937C0084
:1003F000089585E895E00196A8959F3F890721F02B
:10040000C4ECDCEF35DFB9F70895F8948CB59DB5F1
:100410006091640078B77894903872FD6F1FC09136
:100420006900D0916A00A0906B008093690090935E
:100430006A0060936B0000906C0010906D007091EA
:100440006E00C0936C00D0936D00A0926E00801976
:100450009109670B7D2D733020F090386F0708F0FD
:10046000177F94306F0738F4186080E094E060E004
:10047000D694C79409C070918100831797076F07BE
:1004800018F41860D694C79490386F07A7E5B3E0C6
:10049000F0F0A1E0B1E27D01A0E8BBEAFF9F771B8D
:1004A0000AC0771F001C111C78170906160618F0E1
:1004B000781B090A160AAA1FBB1FEE1CFA9489F7BB
:1004C000A095B095AE38BF0710F4AEE8B0E07D015E
:1004D00080936F009093700060937100669597957C
:1004E0008795C0916900D0916A00A0906B0078E474
:1004F00059D0C0937200D0937300A09274009031D1
:100500006F0718F02F7B71D002C02064A9D014FDB2
:1005100026CFC0917900D0917A00CE15DF0508F082
:10052000E701CC15DD0508F0E6018EE890E0C8177C
:10053000D90708F0CE01880F991FC816D90608F010
:100540006C0187E593E08C1B9D0B31F1209631F116
:100550001D7F116016FF08C0880F991FCC0FDD1F8B
:10056000880F991FCC0FDD1F68947AE29F1377E103
:1005700080329F0738F013FD05C0E894409771E280
:100580009F1377E1C09580951E01F8942C0170931C
:10059000650027F9789408951360E6CF1C7F76E311
:1005A0006894F0CF879FC10DDF1FAF1E979FC00DCE
:1005B000D11DAF1E679FD00DA11C089580916F00C3
:1005C0009091700060917100C0917200D0917300A1
:1005D000A09074000895F2DFC80FD91FA61EC80F9F
:1005E000D91FA61E02C0EADFDDDF79B7072E7B7EAA
:1005F00079BF70E1F894DBBDCABD78BF8CB59DB5FD
:10060000789401606091640078B7903872FD6F1F34
:10061000C81BD90BA60AA09263000AF40E7F09BE7C
:10062000089526FFD8CF80916F0090917000C091FF
:100630007200D0917300C80FD91FC80FD91F10C006
:1006400026FFD1CF80916F0090917000C091720011
:10065000D0917300879FC10DDF1F979FC00DD11DE3
:1006600070E1F894DBBDCABD78BF8CB59DB5016063
:10067000F09363007894C81BD90B0AF40E7F089599
:10068000279670E1F8948CB59DB5C80FD91FDBBDD6
:10069000CABD78BFA092630001607894089514FDEC
:1006A0005EDE00FDFCCF0895F5BD80E488BFE4E385
:1006B000929AC29AC19A82B3877C82BB0895B09BFA
:1006C000F09366008091660085FF0895E0E0F8945D
:1006D000FCE185919491F0E0789401960297A8F35B
:1006E000F894F7BBF4BBF1BB88E181BDF1BD80910B
:1006F000600081BF85CA00240FBEEFE5F4E0FEBFB5
:10070000EDBF0292E036F00509F4EEE1E015F005E8
:10071000C1F781B780936000A4B6F4BF86E088BBC0
:100720008EE387BB80E385BBF4BB86E082BB8EE3B0
:1007300081BB82E083BF81EC8EBDF5BD88E181BDC8
:1007400088E081BD4EDD6ADD5ADD78949FDDA0FA38
:10075000AF1226F40BDD13DD1BDD1EC0A2FE04C0AC
:1007600017DD04DD006818C0A1FE02C018DD14C04A
:10077000F894A3FE05C0FADCF9DC0ADD09DDFBCF45
:100780002DDD4A2D58E040FFFADC40FD08DD27DD75
:1007900046955A95C1F7F4CF83E296EB392F8093B3
:1007A0008100A298A3980D7F0EDE84E588BF89BFE3
:1007B00081EC8EBD89B7806289BFBB241B7EF0931C
:1007C0006600F0936700A89514FD0AC078DF809159
:1007D00067008837C1F78CE380936700D9DCF3CFDB
:1007E000BDDDC0917900D0917A00209631F78AE082
:1007F000B81648F3812F847019F089B78F7D89BFAF
:10080000B5DCB4DCCCDCCBDCCADC0B7F4DDF0D7F90
:10081000A29AA398F0936600F0936700A89514FD40
:100820000CC0BB20D9F74BDF809167008E31B1F748
:100830003BDFD7DCADDCA3DCB4CF91DDBB2071F3B3
:10084000209609F4E7CF30DF80B7886080BFA39897
:10085000A298CEE8D0E06E01026005D1F093750059
:10086000F0937600F093770082E0B82E86E08093D4
:10087000620081E08093610081E085BD17FD4AC080
:10088000F6D081E087B93798C29A10FD9298C39844
:10089000ECD0379AF894287F226068B3C19A78B375
:1008A00082B3959892B38913949A6713C2987894F7
:1008B000DED080E087B93798929A10FDC198D5D0E4
:1008C00081E087B93798F894287F216068B3C29A8D
:1008D00078B382B3949892B38913939A67139298DA
:1008E0007894C39AC4D0379AC19A10FDC298BDD0EB
:1008F00080E087B93798F894287F246062B3929A91
:1009000072B382B3939892B38913959A6713C1987F
:10091000789449C0AAD0379AF894287F216068B3A8
:10092000C19A78B382B3959892B38913939A671357
:1009300092987894C39A9BD081E087B93798C29AED
:1009400010FDC19892D080E087B93798F894287F3D
:10095000226062B3929A72B382B3939892B389136E
:10096000949A6713C298789482D0379AC19A10FDEE
:100970009298C3987AD081E087B93798F894287F05
:10098000246068B3C29A78B382B3949892B38913FF
:10099000959A6713C19878946AD080E087B93798A0
:1009A000929A10FDC29880916100803010FF71F121
:1009B000E601209661F18130C8F48395809361004F
:1009C00062968EE890E06091770070917600705E9C
:1009D0007093760021F4615FD9F0609377006F30F7
:1009E00070F07C3060F083E290E009C01F7BF093F0
:1009F0007700F0937600A3986B9687E593E0C8178D
:100A0000D90710F06C013ACF6E0138CFFFCE1BCF63
:100A10004BDE0D7FE3DBE2DBC2DBA1DC2096D1F70E
:100A2000C0CEE4E320FD929A21FDC29A22FDC19A34
:100A300082B3877C82BBA39A81E0809362005EC010
:100A400016FD09C0BC3030F0BBE0AB1708F4AB2F8B
:100A5000E8DD47C0A39AF093610070917500715F63
:100A600016FD70937500106449C01F7D01C01062AF
:100A700080916200815050F08093620016FF19C08F
:100A8000C0E0DFEFAF2EFCDDA3E02AC0E43311F4B9
:100A9000E6E3A39816FD40C07BE1D2DD00DE79E5F8
:100AA000CFDD00FFBECF14FD5ADC68B1612765FDC4
:100AB000F8CFA0917000B0917100B695A795B6954A
:100AC000A795A330BF0750F051F0AA31BF0708F037
:100AD000AAE1AC3020F073E3B3DD02C0A3E0A1DDF6
:100AE000BA2F00FFADCF14FD3ADC68B1612765FD78
:100AF00003C0AB17AF1FF5CFAA9599F7C49A85DC51
:100B000016FFCDDDC498809162008F131E7FBF1247
:100B100008958F918F917ACEC0E0D0E070E0A72E3B
:100B200080916100823030F47091750080E090E82F
:100B300060E038DDA5DDB3DDC0E0DCED75E0A72EBB
:080B40009FDDAFEFCDCFD7CD53
:101C0000E4E0FFE5FEBFEDBF00E0ECEBFEE0C0E886
:101C1000D0E0A0E6B0E042E045BD5CEE539571F047
:101C200040EC04BD48BFA03619F0E8B6E6FC46C05B
:101C3000B099F9CF04BD48BFE8B6E6FCE1C1B09B5E
:101C4000FBCF04BD48BFE8B6E6FCE8CFB099FBCFB8
:101C500034B404BD48BFE8B6E6FCD2C1B09BFBCFAC
:101C600024B4022C030C802C07940694402C069478
:101C70008008809420943094409460EE83E084BC8B
:101C800048BFE8B6E6FCBCC1B09BFBCF84BC48BFF4
:101C9000E8B6E6FCC3CFB099FBCF0894E8B6E6FC03
:101CA00023C0B09BFBCFE8B6E6FCB8CFB099FBCF22
:101CB0008894E8B6B09BE6FC17C0FBCF43BC87E135
:101CC000C09AB89A34BC48BFE8B6E6FEFDCFC098CB
:101CD00024BC48BFE8B6E6FEFDCF8A9589F7C0E68A
:101CE000D0E060E081E00BC0679548F6815068F570
:101CF0005CEE0994CA17DB07D1F0699188E066951C
:101D0000C09A34BC48BFE8B610F0E7FC08BBE6FE5A
:101D1000FACFC09808F0C09A24BC48BFE8B610F0CB
:101D2000E7FC08BBE6FEFACF8A9549F7E3CFC09AF5
:101D300034BC48BFC0E8D0E0A0E6B0E0E8B6E7FEBB
:101D4000FDCFB89808BB6ACF80E060E898CFECEB95
:101D5000FEE0C0E8D0E0F8CF009000000090000066
:101D60000090000000900000009000000090000033
:101D70000090000000900000000000006B3121F78F
:101D8000562E3796E1CF962E56263496DDCF762EF8
:101D900056263496D9CF662E56263496D5CF6E3039
:101DA000B1F656263596D0CF69935626CF3584E0C6
:101DB000D80768F681E0681A700A09F43C96C4CF27
:101DC0006511C5CFC0E8D0E0699199918991FD0175
:101DD0007BE170839182028372E073837EE074837F
:101DE0006583068317966130A1F48BE0838388E0D6
:101DF0008D93EF01ECEDFFE185918D93E43EE1F7EA
:101E0000FE01819161918627EA17FB07D9F78D932F
:101E10009ECF6D3151F5792F90E0039683839283A5
:101E200003970D938A95E9F789916991603380074B
:101E300094E0790779F460878991803059F4699149
:101E400060308EE131F0613083E919F0623087E073
:101E500009F482870D93D5CF8017900709F5D990A3
:101E6000C9905601AA0CBB1CCCCF6330E1F06230A4
:101E700041F2603131F2613121F2663069F3623151
:101E8000F1F1833F73E0970758F4643109F166314B
:101E900069F127966531C1F16331F9F10000000065
:101EA00080EC8683AECF90398FE071F0913982E07B
:101EB00059F092398AE041F0943982E329F0903860
:101EC00080E011F0913861F78D9383E0838399CF9F
:101ED00049D0EF01F5018FD076FDFDCF65916D936F
:101EE0000197E1F75F01FE010D938BCF3BD011E02D
:101EF0003ED06DB36D930197D9F70D9382CF47D044
:101F0000000080E092E0689416E06FEF0EF06991B7
:101F10002ED00197D1F7E89474CF8F7F61E07F01D5
:101F2000F5010990199068D032960297D1F70F0108
:101F3000F501500163E0E03C7FE1F70719F058D06C
:101F4000F7015FCF0BD065E009D061E107D0F8CF92
:101F500077B770FDFDCFE199FECF0895F9DF67BF38
:101F6000E8950895039692838383039708953AD062
:101F7000DFBACEBA0894C01ED01E762FE09A6DB399
:101F8000671312FF08957DBBE29A1CBB08957F0181
:101F9000E0E0FCE163E0E054F0402ED0E1F76F01B7
:101FA000F70108950000000000000000000000009C
:101FB0000000000000000000000000000000000021
:101FC000687474703A2F2F6769746875622E636F36
:101FD0006D2F73696D2D2F7467792F00415652490B
:101FE00053505F3277B770FDFDCFE199FECF089572
:101FF00003D065E001D061E1F5DF67BFE8950895A2
:00000001FF
